:020000040800F2
:10000000702D002045010008830D0008850D0008B3
:10001000890D00088D0D0008910D000800000000FA
:10002000000000000000000000000000950D000826
:10003000970D000800000000990D00089B0D0008B6
:100040005F0100085F0100085F0100085F01000810
:100050005F0100085F0100085F0100085F01000800
:100060005F0100085F0100085F0100085F010008F0
:100070005F0100085F0100085F0100085F010008E0
:100080005F0100085F0100085F0100085F010008D0
:100090005F0100085F0100085F0100085F010008C0
:1000A0005F0100085F0100085F0100085F010008B0
:1000B0006D0D00080B0D0008910C00085F01000891
:1000C0005F0100085F0100085F0100085F01000890
:1000D0005F010008A30D0008290C0008B10D0008FD
:1000E0005F0100085F0100085F0100085F01000870
:1000F0005F0100085F0100085F0100085F01000860
:100100005F0100085F0100085F0100085F0100084F
:100110005F010008611000085F0100085F0100082E
:100120005F0100085F0100085F0100085F0100082F
:10013000DFF80CD008F086FB004800476901000892
:10014000702D00200648804706480047FEE7FEE77E
:10015000FEE7FEE7FEE7FEE7FEE7FEE7FEE7FEE777
:10016000D71300083101000808B503F061F803F067
:100170007EFA03F0D3F807F07FFF4CF2503003F023
:1001800064F80A21132007F0D3FE4FF4E13006F0A3
:10019000B3FE4FF4E1514FF4FA7003F01DFA06F08C
:1001A00069FB06F0FAF807F0F8FF07F09FFA07F08E
:1001B000F0FA07F00AF807F05CF8F7480823802205
:1001C00000210090084607F024FCF4480823802210
:1001D00000210090084607F08CF9F14803F035F84B
:1001E000002007F044FB002007F0B1F809220021AD
:1001F000702007F0E6FB0A220021122007F0E1FB45
:1002000009220021702007F04CF90A220021122057
:1002100007F047F960E100F087FFE2480078012825
:1002200072D1E1480068E149096888422AD0DE4875
:100230000068807810280CD0DB480068807882281D
:1002400003D1DB480078012803D0DA480078012880
:1002500018D1D54800688178D7A008F035FBD2487E
:10026000006806F0CBFED048006800F59670CE49D5
:10027000086008460068D4490968884202D1D3481A
:10028000C9490860D2480068D2490968884279D0D3
:10029000D1A008F019FBCE480068807820283CD116
:1002A000CB480068407906282FD2DFE800F0030A27
:1002B00011181F26CBA008F007FB0120BC490870CD
:1002C0002AE0CDA008F000FB0020B649087023E02A
:1002D000D4A008F0F9FA0020B24908701CE0DDA0B3
:1002E00008F0F2FA0020AF49087015E0E3A008F02A
:1002F000EBFA0020AB4908700EE0EBA008F0E4FA3E
:100300000020A849087007E0B2E3EFA008F0DCFA8B
:100310000020A449087000BF4BE0AD480068807819
:1003200090281FD1AA480068807910B1012811D106
:1003300000E000BFEDA008F0C7FA01209D49087059
:100340000020ED49087003F0D1F803F093F800F0B5
:1003500080FF06E0E9A008F0B7FA00209149087094
:1003600000BF26E09A4800688078D02815D1E9A01F
:1003700008F0AAFAE0480078012804D10020DE49FC
:10038000087016E024E0DC480078012811DD002028
:10039000D949087003F0AAF80BE08D48006880780E
:1003A000302806D1DFA008F08FFA8948006806F0EF
:1003B000D0F98748006800F59670854908600846BE
:1003C0000068DD490968884202D1DC48804908603C
:1003D000DB480068DB49096888427DD0D84801685D
:1003E000891CD9A008F070FADAA1D5480068801CF1
:1003F00007F082FF30B10820DD4908600120DD49A7
:1004000008800DE0DCA1CE480068801C07F074FF76
:1004100030B10820D649091D08600020D549088060
:10042000DCA1C7480068801C07F066FF30B140209F
:10043000DE4908600120DE4908800DE0DDA1C048EA
:100440000068801C07F058FF30B14020D749091DD3
:1004500008600020D6490880DCA1B9480068801CEB
:1004600007F04AFF30B11020D04908600120DE4972
:1004700008800DE0DDA1B2480068801C07F03CFF59
:1004800030B11020C949091D08600020D6490880F4
:10049000DDA1AB480068801C07F02EFF30B12020A2
:1004A000C24908600120DF4908800DE0DEA1A448B0
:1004B0000068801C07F020FF30B12020BB49091DD7
:1004C00008600020D7490880DEA19D480068801C94
:1004D00007F012FF40B100E0C9E20420B349086010
:1004E0000120DF4908800DE0DEA195480068801CEE
:1004F00007F002FF30B10420AC49091D086000205C
:10050000D7490880DEA18E480068801C07F0F4FE01
:1005100030B11020964908600120E04908800DE0C4
:10052000DFA187480068801C07F0E6FE30B110208C
:100530008F49091D08600020D8490880DFA1804844
:100540000068801C07F0D8FE30B108209749086089
:100550000120E14908800DE0E0A179480068801C95
:1005600007F0CAFE30B108209049091D086000203C
:10057000D9490880E0A172480068801C07F0BCFEE1
:1005800048B108207A4908600120E2490880052026
:10059000E1490860D1E1C1E178080020F8020020BB
:1005A000F0490200690100203801002034010020D8
:1005B0006A0100206B010020B7A2CBCDCAFDBEDDD1
:1005C0003A307825780D0A003C0100208C1200207A
:1005D0002C01002028010020BDD3CAD5B5BDCAFD1D
:1005E000BEDD3A00434F4E4E454354B1A8CEC4B38E
:1005F000C9B9A60D0A000000C1ACBDD3D2D1BEDC82
:10060000BEF8A3ACB2BBD6A7B3D6B5C4D0ADD2E9C1
:10061000B0E6B1BEA3ACD7BCB1B8D6D8C6F40D0A0B
:1006200000000000C1ACBDD3D2D1BEDCBEF8A3AC8B
:10063000B2BBBACFB8F1B5C4BFCDBBA7B6CBB1EA98
:10064000CAB6B7FBA3ACD7BCB1B8D6D8C6F40D0AAE
:1006500000000000C1ACBDD3D2D1BEDCBEF8A3AC5B
:10066000B7FECEF1B6CBB2BBBFC9D3C3A3ACD7BC28
:10067000B1B8D6D8C6F40D0A00000000C1ACBDD395
:10068000D2D1BEDCBEF8A3ACCEDED0A7B5C4D3C3F6
:10069000BBA7C3FBBBF2C3DCC2EBA3ACD7BCB1B8F6
:1006A000D6D8C6F40D0A0000C1ACBDD3D2D1BEDC91
:1006B000BEF8A3ACCEB4CADAC8A8A3ACD7BCB1B854
:1006C000D6D8C6F40D0A0000C1ACBDD3D2D1BEDC71
:1006D000BEF8A3ACCEB4D6AAD7B4CCACA3ACD7BC2E
:1006E000B1B8D6D8C6F40D0A00000000B6A9D4C42B
:1006F000B3C9B9A60D0A000068010020B6A9D4C488
:10070000CAA7B0DCA3ACD7BCB1B8D6D8C6F40D0A22
:100710000000000050494E47B1A8CEC4BBD8B8B4C1
:100720000D0A0000B7FECEF1C6F7B5C8BCB630CD95
:10073000C6CBCD0D0A00000030010020B00C002017
:100740004401002040010020C3FCC1EE3A25730D96
:100750000A00000022706172616D73223A7B224CA4
:1007600069677468537769746368223A317D000061
:10077000101C01400000002022706172616D732224
:100780003A7B224C69677468537769746368223ACC
:10079000307D000022706172616D73223A7B2254B9
:1007A00056537769746368223A317D00101801400E
:1007B0000200002022706172616D73223A7B225424
:1007C00056537769746368223A307D0022706172F3
:1007D000616D73223A7B2241697253776974636851
:1007E000223A317D00000000040000202270617276
:1007F000616D73223A7B2241697253776974636831
:10080000223A307D0000000022706172616D732217
:100810003A7B225761746572537769746368223A30
:10082000317D00000600002022706172616D73222C
:100830003A7B225761746572537769746368223A10
:10084000307D000022706172616D73223A7B224418
:100850006F6F72537769746368223A317D000000CC
:100860000800002022706172616D73223A7B22447D
:100870006F6F72537769746368223A307D000000AD
:1008800022706172616D73223A7B224C6976696EC7
:1008900067537769746368223A317D000A0000204B
:1008A00022706172616D73223A7B224C6976696EA7
:1008B00067537769746368223A307D0022706172F1
:1008C000616D73223A7B2257696E646F7753776943
:1008D000746368223A317D000C000020227061723E
:1008E000616D73223A7B2257696E646F7753776923
:1008F000746368223A307D0022706172616D7322E8
:100900003A7B2246616D696C79537769746368221A
:100910003A317D000E0000202800002068A16F48B9
:100920000068801C07F0E8FC38B108206C490860BA
:1009300000206C4908806C4908606CA16748006819
:10094000801C07F0D9FC60B110206549091F0860C0
:100950000820086001206C49088006206249086070
:1009600010E06AA15D480068801C07F0C5FC48B132
:1009700010205B4908600820086000206249088058
:100980005949086068A155480068801C07F0B4FC0C
:1009900048B101205249091F08606A4908800220B5
:1009A000514908600EE068A14C480068801C07F0BF
:1009B000A3FC38B101204A49086000206149088041
:1009C0004949086067A145480068801C07F094FC0D
:1009D00050B102204249091F08600120694908807E
:1009E0000320414908600EE067A13C480068801C74
:1009F00007F082FC38B102203949086000206149C3
:100A000008803949086068A134480068801C07F0F4
:100A100073FC50B104203249091F08600120694964
:100A200008800420304908600EE067A12B48006868
:100A3000801C07F061FC38B10420294908600020BF
:100A400060490880284908602448006800F59670CD
:100A5000224908600846006862490968884202D154
:100A600061481E49086000F0B0FB00F0F1FB25E092
:100A70005EA007F029FF0021614801F0D1FE0021AE
:100A8000604801F0CDFE00205F4908604FF48061AE
:100A90005E4807F026FC06F02EF878B95CA007F057
:100AA00013FF01205F4908700020574908604FF488
:100AB0008061564807F015FC05F042FCFFF7ABBB20
:100AC00022706172616D73223A7B2246616D696C9E
:100AD00079537769746368223A307D0044010020BD
:100AE000141C01400E0000202800002022706172BA
:100AF000616D73223A7B22534F5353776974636855
:100B0000223A317D00000000100000202270617246
:100B1000616D73223A7B22534F5353776974636834
:100B2000223A307D0000000022706172616D7322F4
:100B30003A7B22446F63746F7253776974636822DF
:100B40003A317D001200002022706172616D7322C3
:100B50003A7B22446F63746F7253776974636822BF
:100B60003A307D0022706172616D73223A7B2243BC
:100B7000616E7465656E537769746368223A317D7E
:100B8000000000001400002022706172616D732269
:100B90003A7B2243616E7465656E5377697463684E
:100BA000223A307D0000000022706172616D732274
:100BB0003A7B22576F726B537769746368223A31BC
:100BC0007D0000001600002022706172616D7322AA
:100BD0003A7B22576F726B537769746368223A309D
:100BE0007D0000004801002068180020D0E8D2AA4B
:100BF000C1ACBDD3B7FECEF1C6F70D0A00000000B0
:100C00000008004000040040740100207021002012
:100C1000BDA8C1A2544350C1ACBDD3B3C9B9A60D40
:100C20000A0000006901002010B540F22551F74884
:100C300002F094FA58B3F648007880B9F348001DE2
:100C4000008820B3F148001D0088F249F24A12687A
:100C50008854F1480068401CEF49086017E0EB48F1
:100C6000001D0088EB49EC4A12688854EA48006885
:100C700020B90121E94801F0D3FD03E00021E74854
:100C800002F062F8E4480068401CE349086010BDC7
:100C900010B50121E14802F08CF8002834D0DE487C
:100CA000DC490268DE480068801C07F001FBDA4876
:100CB0000088000ADA4909680870D7480078D849DE
:100CC00009684870D648006800F59670D4490860F5
:100CD00008460068D3490968884202D1D248D04901
:100CE00008600020CC4908600021D04802F02CF8B0
:100CF0000021CA4801F094FD0021C84802F024F800
:100D00000121C64802F066F810BD10B50121C748A0
:100D100002F04FF848B3C6480078062819D2DFE839
:100D200000F003060B0C0D1005F06AFC11E002F058
:100D300016FC05F065FC0CE000BF00BF05F060FC90
:100D400007E00020B24908700021B84801F068FDB2
:100D500000BF00BFB6480078401CB549087000F0DD
:100D600078FA0121B14802F035F810BD10B5012123
:100D7000880702F01EF818B10121880702F02AF84E
:100D800010BD704700BFFEE700BFFEE700BFFEE7F3
:100D900000BFFEE770477047704710B502F067FA72
:100DA00010BD10B540F22551A24802F0D7F910BD90
:100DB00010B540F22551A04802F0D0F9002872D0B9
:100DC0009D4802F04BF9C4B2312C03D101209B495C
:100DD000087046E0322C03D102209849087040E0A8
:100DE000332C03D10320954908703AE0342C03D109
:100DF00004209249087034E0352C03D105208F4936
:100E000008702EE0362C03D106208C49087028E0AB
:100E1000372C03D107208949087022E0382C03D1F0
:100E20000820864908701CE0392C03D10920834929
:100E3000087016E0612C03D10A208049087010E088
:100E4000622C03D10B207D4908700AE0632C03D18A
:100E50000C207A49087004E07A2C02D10D207749E1
:100E60000870764800780E280ED2DFE800F0C70739
:100E70000E151D242B3239536E89A4C370480068A7
:100E800080F008006E490860B8E06E48006880F0A5
:100E900040006C490860B1E06A48006880F01000CA
:100EA00068490860AAE0AFE06648006880F020006A
:100EB00064490860A2E06348006880F0040061496A
:100EC00008609BE05E48006880F010005C490860A4
:100ED00094E05C48006880F008005A4908608DE0A2
:100EE000012157480C3800F065FC48B901205449ED
:100EF000091D08605449088002205449086008E030
:100F000001204F490831086000204F4908804F49AF
:100F1000086073E002214A480C3800F04BFC50B9DD
:100F200002204749091D0860012049490880032023
:100F30004649086008E00220414908310860002065
:100F4000434908804149086058E004213C480C3876
:100F500000F030FC50B904203949091D0860012017
:100F60003C49088004203949086008E004203449DD
:100F700008310860002037490880344908603DE0A6
:100F800008212F480C3800F015FC50B908202C49D6
:100F9000091D086001203049088005202B490860A0
:100FA00008E0082026490831086000202A49088006
:100FB0002649086022E0102121480C3800F0FAFB95
:100FC00060B910201E49091D086008200860012032
:100FD0002249088006201D4908600AE010201849AF
:100FE000083108600820086000201C490880174963
:100FF000086003E064201549086000BF00BF0020BE
:101000000E49087000F090F810BD00000044004048
:1010100069010020702100207401002000080040B8
:101020002801002030010020B00C00200004004006
:1010300068010020003801400048004019000020ED
:101040000C1C01400C180140120000202800002058
:1010500014000020160000200E00002010000020C8
:1010600010B540F225510F4802F078F8C0B10D4894
:1010700001F0F4FF0C490D4A127888540B480078AF
:10108000401C0A490870084800783C2801D000201C
:10109000087006480078102802DB00200349087019
:1010A00010BD000000500040900C002018000020EF
:1010B00010B56848006804281DD006DC01280BD054
:1010C00002280ED003282AD110E0052818D00628BF
:1010D0001BD0642823D11DE05F49022006F07CFF6D
:1010E0001DE05E49022006F077FF18E05C4902200F
:1010F00006F072FF13E05B49022006F06DFF0EE080
:101100005949022006F068FF09E05849022006F01C
:1011100063FF04E05649022006F05EFF00BF00BFF7
:1011200000204C49086010BD10B5FFF7C1FF10BD8D
:101130005048006807282CD2DFE800F004080D139F
:10114000191F250004204C49087022E000204A495C
:10115000087048701DE00020474908700120487061
:1011600017E00020444908700220487011E0002078
:1011700041490870032048700BE000203E49087088
:101180000420487005E000203B49087005204870A5
:1011900000BF00BF704710B53848006828B900226A
:1011A0001146104606F00DFC04E005220021084619
:1011B00006F007FCFFF7BCFF06F0BEFD2E4806F068
:1011C000EBFD2F49087010BD704710B5ADF51C7DC3
:1011D0002C4800882C4909882C4A12882C4B1B88E3
:1011E000CDE90132CDE903102A48008800902A4851
:1011F00003882A4802882A4951A807F075FB51A89C
:1012000007F08CF80446224651A926A005F003FAFF
:101210003048008830490988304A1288CDE90021D9
:1012200002902F4803882F4802882F4906A807F00C
:101230005BFB06A807F072F80446224606A919A02F
:1012400005F0E9F929A007F03FFB0DF51C7D10BD65
:1012500070477047280000202C0000204300002029
:101260005A00002071000020880000209F0000200C
:10127000B6000020D4000020DC000020D0000020B8
:10128000240000200C0000200A000020080000209C
:1012900006000020040000200200002000000020C2
:1012A00030A600082F7379732F613170616A465040
:1012B0006D506B6D2F443030312F7468696E672F1D
:1012C0006576656E742F70726F70657274792F70A9
:1012D0006F73740016000020100000200E00002024
:1012E000140000201200002080A50008B7A2CBCD7A
:1012F000D7B4CCAC0A0D00000CB5002001900090D2
:101300006C48006840F480306A49086000BF694852
:10131000006800F4003000900198401C0190009893
:1013200018B90198B0F5A06FF1D16248006800F4D7
:10133000003010B10120009001E0002000900098E2
:10134000012843D15C48006840F010005A49086009
:101350000846006820F0030008600846006840F076
:101360000200086053484068524948600846406897
:1013700048600846406840F480604860084640681D
:1013800020F47C1048600846406840F4E81048604B
:101390000846006840F08070086000BF454800685B
:1013A00000F000700028F9D04248406820F00300A7
:1013B000404948600846406840F00200486000BF6D
:1013C0003C48406800F00C000828F9D10CBD10B56D
:1013D000FFF792FF10BD10B53648006840F00100DD
:1013E000344908600846406834490840314948603B
:1013F00008460068324908402E49086008460068DF
:1014000020F4802008600846406820F4FE00486010
:101410004FF41F008860FFF7DAFF4FF000602949A2
:10142000086010BD10B5002100200022214B5B6830
:1014300003F00C0121B1042906D0082928D107E0C6
:10144000214B224C236027E01F4B204C236023E0DC
:10145000184B5B6803F47010164B5B6803F4803222
:10146000022303EB904022B9194B4343174C2360EE
:101470000DE0104B5B6803F4003323B1144B43437E
:10148000124C236003E0104B4343104C236003E0F5
:101490000D4B0E4C236000BF00BF064B5B68C3F3CF
:1014A00003130C4CE15C094B1B68CB40074C2360D9
:1014B00010BD000000100240002002400000FFF8B4
:1014C000FFFFF6FE08ED00E000127A00F8000020B1
:1014D00000093D00FC00002031490143314A116000
:1014E000704770B5002100230F22C47804B32D4C3F
:1014F000246804F4E064C4F5E064210AC1F1040343
:10150000CA40447804FA03F1847814402143090165
:10151000254C0678A155047804F01F050124AC4041
:1015200005786D11AD0005F1E025C5F8004109E031
:10153000047804F01F050124AC401C4D0678761198
:1015400045F8264070BD1A4A0A400243154B1B1F3E
:101550001A60704739B1134A121D12680243114BC9
:101560001B1D1A6006E00F4A121D126882430D4BC4
:101570001B1D1A607047042808D14FF0E02109694B
:1015800041F004014FF0E022116107E04FF0E0214B
:10159000096921F004014FF0E02211617047000059
:1015A0000000FA050CED00E000E400E080E100E05E
:1015B00080FFFF1F10B50446CC48844208D10121AA
:1015C000042000F02DFB0021042000F029FB46E060
:1015D000C748844208D10121082000F021FB0021E6
:1015E000082000F01DFB3AE0C248844208D10121E6
:1015F000102000F015FB0021102000F011FB2EE060
:10160000BD48844208D10121202000F009FB0021BF
:10161000202000F005FB22E0B848844208D10121D7
:10162000402000F0FDFA0021402000F0F9FA16E019
:10163000B348844208D10121802000F0F1FA002152
:10164000802000F0EDFA0AE0AE48844207D1012183
:10165000801500F0E5FA0021A01500F0E1FA10BDB8
:1016600010B50121084600F0DBFA0021012000F04E
:10167000D7FA10BD2DE9F0410246002500260020D2
:1016800000230024002791F803C00CF00F0591F807
:1016900003C00CF0100CBCF1000F03D091F802C095
:1016A0004CEA050591F800C0BCF1000F31D0146878
:1016B00000202BE04FF0010C0CFA00F3B1F800C051
:1016C0000CEA03069E4220D183004FF00F0C0CFA67
:1016D00003F7BC4305FA03FC4CEA040491F803C089
:1016E000BCF1280F06D14FF0010C0CFA00FCC2F837
:1016F00014C00AE091F803C0BCF1480F05D14FF0C7
:10170000010C0CFA00FCC2F810C0401C0828D1D310
:101710001460B1F800C0BCF1FF0F34DD5468002044
:101720002EE000F1080C4FF0010808FA0CF3B1F8B4
:1017300000C00CEA03069E4221D183004FF00F0C3B
:101740000CFA03F7BC4305FA03FC4CEA040491F8D5
:1017500003C0BCF1280F05D100F1080C08FA0CF801
:10176000C2F8148091F803C0BCF1480F07D100F112
:10177000080C4FF0010808FA0CF8C2F81080401C61
:101780000828CED35460BDE8F0814FF6FF71018088
:10179000022181700421C1707047024600209368C5
:1017A0000B400BB1012000E0002070470146886823
:1017B00080B2704702460020D3680B400BB1012075
:1017C00000E0002070470146C86880B270470161A0
:1017D0007047416170470AB1016100E041617047A3
:1017E000C16070474FF480320A4382618161826137
:1017F00082698269704702460020434B18684FF6A1
:101800008073184040EA021008433F4B186070474D
:101810003E49C8617047F0B50A4600230024002104
:10182000002500F00046B6F1004F02D1364EF169B6
:1018300001E0354E7168C0F3034583B200F44016F1
:10184000B6F5401F08D121F070612F4E766826F062
:1018500070662D4F7E6012E000F48016B6F5801F92
:1018600006D1032606FA05F4A14341F0706106E0B3
:10187000460D360103FA06F6B14341F0706122B11C
:10188000460D360103FA06F6314300F00046B6F184
:10189000004F02D11C4EF16101E01B4E7160F0BDA2
:1018A00030B500228B071C0F0F2303FA04F2164BEE
:1018B00008338C1053F824309343134C08348D10A4
:1018C00044F8253023468C1053F824308C07240F1D
:1018D00000FA04F423430C4C08348D1044F82530EE
:1018E00030BD0A49DC310860704700000008014043
:1018F000000C01400010014000140140001801409C
:10190000001C014000200140000001400000204276
:10191000DF48006840F00100DD4908600846406883
:10192000DC490840DA49486008460068DA4908405E
:10193000D74908600846006820F4802008600846FF
:10194000406820F4FE0048604FF41F008860704734
:10195000CF49096821F48031CD4A116011460968E8
:1019600021F480211160B0F5803F03D0B0F5802FC5
:101970000ED106E0C649096841F48031C44A1160BD
:1019800007E0C349096841F4A021C14A116000E0A1
:1019900000BF00BF704710B50146002200230020A1
:1019A0004A11012A02D1BA4C236806E0022A02D168
:1019B000B74C236A01E0B64C636A01F01F020124B0
:1019C00094401C400CB1012000E0002010BD38B54F
:1019D000002000900024002500BF3120FFF7DBFF2E
:1019E00005460098401C00900098B0F5A06F01D00B
:1019F000002DF2D03120FFF7CEFF08B1012400E026
:101A00000024204638BD01460020A14A106820F07D
:101A1000F80040EAC10010607047A04908607047B4
:101A2000024600209A4B586820F47C1042EA0103D9
:101A30001843974B586070479849086670470146AD
:101A40000020934A506820F003000843506070471C
:101A50008F48406800F00C007047014600208C4A17
:101A6000506820F0F00008435060704701460020A5
:101A7000874A506820F4E060084350607047014690
:101A80000020834A506820F4605040EAC100506052
:101A9000704729B17E4A527A02437D4B5A7204E064
:101AA0007B4A527A82437A4B5A7270477B49D831CB
:101AB0000860704701460020754A506820F4404095
:101AC0000843506070470021714A20321170704AFB
:101AD00082F82010012802D004280AD104E0012154
:101AE0006B4A2032117005E00521694A20321170DD
:101AF00000E000BF00BF7047694908607047644953
:101B0000096A0143624A11627047654944390860B5
:101B1000704730B500210022002400235C4D6D6821
:101B200005F00C0121B1042905D0082923D105E0D5
:101B30005C4D056022E05B4D05601FE0544D6D6813
:101B400005F47012524D6D6805F48034022505EBE2
:101B500092421CB9544D554305600BE04C4D6D68E5
:101B600005F400351DB1504D5543056002E04D4D63
:101B70005543056002E04B4D056000BF00BF444D7A
:101B80006D6805F0F0010909484D6B5C0568DD40A2
:101B900045603F4D6D6805F4E061090A434D6B5C9B
:101BA0004568DD4085603A4D6D6805F46051C90AAD
:101BB0003E4D6B5C4568DD40C560354D6D6805F494
:101BC0004041890B3A4D6B5CC568B5FBF3F5056187
:101BD00030BD29B12E4A526902432D4B5A6104E0AF
:101BE0002B4A526982432A4B5A61704729B1284ACD
:101BF00092690243264B9A6104E0254A9269824326
:101C0000234B9A61704729B1214AD2690243204B84
:101C1000DA6104E01E4AD26982431D4BDA617047E3
:101C200029B11B4AD2680243194BDA6004E0184A12
:101C3000D2688243164BDA60704729B1144A1269A0
:101C40000243134B1A6104E0114A12698243104B9C
:101C50001A61704712494039086070470F49C864DB
:101C600070470B49C87170470948406A40F080705E
:101C700007494862704701460020054A92680A40B9
:101C80000AB1012000E000207047014988727047C6
:101C9000001002400000FFF8FFFFF6FE0000424285
:101CA0008004424200127A0000093D000C0100202D
:101CB0001C01002010B50446BE48844208D1012111
:101CC0008014FFF7ADFF0021A014FFF7A9FF16E075
:101CD000B948844208D101210014FFF7AEFF00216A
:101CE0002014FFF7AAFF0AE0B448844207D101217B
:101CF000C013FFF7A2FF0021E013FFF79EFF10BD06
:101D000010B50022028802F441520B884C8823430C
:101D10008C882343CC8823430C8923434C89234359
:101D20008C892343CC8923431A430280838B4FF24F
:101D3000FF74234083830B8A038210BD2DE9F04F8B
:101D400085B005460C464FF0000902274FF0000809
:101D50004FF0010B0026B246A88B4FF2400108401D
:101D6000A88302202884B5F81C90A068022801D11D
:101D700000BF38E0A08810B94FF0010B01E04FF030
:101D8000020B8D48854200D100E000BF6846FFF796
:101D9000C0FEDDF800A0E088B0F5007F0AD14FEA70
:101DA0001A2000EB80004000A168B0FBF1F0401D5C
:101DB00086B20BE04FEA4B10BAFBF0F000EB80006C
:101DC0004000A168B0FBF1F0401D86B20A20B6FBCE
:101DD000F0F606F00108A6EB0800C0F34F074FF637
:101DE000FF7000EA0828022F01DBFF2F02DD022727
:101DF0004FF00008E08840EA080038432884A088B3
:101E0000A1890843618808432188084340F40060A1
:101E100040EA0909A5F81C9005B0BDE8F08F002143
:101E2000018041808180C180018141818181C181A6
:101E30000721018270470021018041808180C1809B
:101E40000221816000218181704721B1028842F026
:101E50004002028004E002884FF6BF731A400280FD
:101E6000704721B1828B42F48062828304E0828BCE
:101E70004FF6FF331A408283704730B500240023A9
:101E80000C110125A540ABB21AB185881D43858090
:101E900002E085889D43858030BD1AB183880B435D
:101EA000838002E083888B43838070478181704701
:101EB0000146888970474FF6FF62914204D002883C
:101EC00042F48072028004E002884FF6FF631A40F9
:101ED0000280704721B1828842F00402828004E0CF
:101EE00082884FF6FB731A408280704702884FF257
:101EF000FF731A40028002880A43028070470188FB
:101F000041F480510180704721B1028842F40052AF
:101F1000028004E002884DF6FF731A400280704789
:101F200002460020012901D0108B00E0908A704702
:101F30000146088A7047B1F5804F04D1028842F407
:101F40008042028004E002884BF6FF731A40028050
:101F500070470246002013890B400BB1012000E0BE
:101F600000207047CA4302817047F0B50246002046
:101F700000240023002501F00F070126BE40B4B263
:101F80000B1101269E40B3B2968806EA0305168916
:101F9000264016B10DB1012000E00020F0BD10B5C3
:101FA000002201F00F040123A3409AB2D34303811E
:101FB00010BD00000030014000380040003C0040EF
:101FC00010B50446FE48844208D10121C014FFF731
:101FD00027FE0021E014FFF723FEC4E0B4F1804F98
:101FE00008D101210846FFF728FE00210120FFF754
:101FF00024FEB8E0F348844208D101210220FFF713
:102000001CFE00210220FFF718FEACE0EE488442DF
:1020100008D101210420FFF710FE00210420FFF762
:102020000CFEA0E0E948844208D101210820FFF716
:1020300004FE00210820FFF700FE94E0E4488442FB
:1020400008D101211020FFF7F8FD00211020FFF733
:10205000F4FD88E0DF48844208D101212020FFF709
:10206000ECFD00212020FFF7E8FD7CE0DA48844207
:1020700008D101214014FFF7D3FD00216014FFF7C0
:10208000CFFD70E0D548844209D10121C804FFF793
:10209000C7FD00214FF40020FFF7C2FD63E0D048E8
:1020A000844209D101210805FFF7BAFD00214FF450
:1020B0008010FFF7B5FD56E0CA48844209D10121DE
:1020C0004805FFF7ADFD00214FF40010FFF7A8FD14
:1020D00049E0C548844208D101214020FFF7ADFD09
:1020E00000214020FFF7A9FD3DE0C048844208D10F
:1020F00001218020FFF7A1FD00218020FFF79DFD39
:1021000031E0BB48844208D101218015FFF795FDDD
:102110000021A015FFF791FD25E0B648844209D1C2
:1021200001210804FFF77CFD00214FF48030FFF708
:1021300077FD18E0B048844209D101214804FFF737
:102140006FFD00214FF40030FFF76AFD0BE0AB4854
:10215000844208D101218804FFF762FD00214FF479
:102160008020FFF75DFD10BD00220288944B98424D
:102170000ED0994B98420BD0B0F1804F08D0914BC4
:10218000984205D0904B984202D0904B984204D18F
:102190004FF68F731A404B881A438D4B984207D0E5
:1021A0008C4B984204D04FF6FF431A40CB881A4319
:1021B00002808B8883850B880385814B98420BD0E6
:1021C000854B984208D08B4B984205D08A4B984259
:1021D00002D08A4B984201D10B7A03860123838275
:1021E000704770B5002400220023058C4FF6FE7660
:1021F00035400584028C8388048B4FF68F752C4004
:10220000B51E2C400D882C43751E2A400D892A438B
:102210004D882A436A4DA8420BD06F4DA84208D082
:10222000744DA84205D0744DA84202D0734DA84207
:1022300013D14FF6F7752A404D892A434FF6FB75A7
:102240002A408D882A434FF6FF652B404FF6FF55F5
:102250002B408D892B43CD892B4383800483CD88EC
:102260008586028470BD70B5002400220023058C91
:102270004FF6EF7635400584028C8388048B48F650
:10228000FF752C404FF6FF452C400D884FF6FF762A
:1022900006EA05252C434FF6DF752A400D8906EA2C
:1022A00005152A434D8806EA05152A43444DA842E0
:1022B00002D0494DA8421DD14FF67F752A404D8965
:1022C0004FF6FF7606EA05152A434FF6BF752A40FA
:1022D0008D8806EA05152A434FF6FF352B404FF24D
:1022E000FF752B408D8906EA85052B43CD8906EACB
:1022F00085052B4383800483CD880587028470BDC8
:1023000070B5002400220023058C4FF6FF6635408F
:102310000584028C8388848B4FF68F752C404FF692
:10232000FC752C400D882C434FF6FF552A400D8933
:102330004FF6FF7606EA05252A434D8806EA05256D
:102340002A431F4DA84202D0234DA8421DD14FF26F
:10235000FF752A404D894FF6FF7606EA05252A4388
:102360004FF6FF352A408D8806EA05252A434EF6AA
:10237000FF752B404DF6FF752B408D8906EA05153C
:102380002B43CD8906EA05152B4383808483CD88B2
:102390008587028470BD70B5002200230024058C5F
:1023A0004EF6FF7635400584038C8488828B48F690
:1023B000FF752A404FF6FF452A400D8820E00000B7
:1023C000002C01400004004000080040000C0040C8
:1023D000001000400014004000340140004C014057
:1023E000005001400054014000180040001C004013
:1023F00000200040004001400044014000480140EE
:102400004FF6FF7606EA05252A434DF6FF752B4069
:102410000D8906EA05352B434D8806EA05352B4321
:10242000FA4DA84202D0FA4DA84208D14BF6FF75EA
:102430002C408D894FF6FF7606EA85152C43848063
:102440008283CD88A0F84050038470BD828B4FF208
:10245000FF331A408283828B4FF6FF7303EA012316
:102460001A4382837047F0B50C46154600220021BE
:102470000026078C4EF6FF7C07EA0C070784828B48
:10248000018C4FF6FF7707EA043640F6FF473A40E3
:102490004FF6FF7707EA05273A434FF6FF7707EA3B
:1024A00003373A43D94FB8420ED0D94FB8420BD078
:1024B000B0F1804F08D0D74FB84205D0D64FB842C0
:1024C00002D0D64FB84206D14DF6FF77394046F4D8
:1024D0008057394305E047F6FF57394044F48057A9
:1024E000394382830184F0BD828B4FF6F3731A4027
:1024F0008283828B0A4382837047F0B50C4615466F
:10250000002200210026078C4FF6FF6C07EA0C071B
:102510000784828B018C4FF6FF7707EA04264FF67B
:102520000C773A404FF6FF7707EA03172F433A43F9
:10253000B64FB8420ED0B64FB8420BD0B0F1804F74
:1025400008D0B44FB84205D0B34FB84202D0B34F11
:10255000B84206D14FF6FF57394046F480773943E9
:1025600005E04FF2FF57394044F4807739438283C6
:102570000184F0BD028B4FF2FF331A400283028BBD
:102580004FF6FF7303EA01231A4302837047F0B545
:102590000C461546002200210026078C4FF6EF7CE2
:1025A00007EA0C070784028B018C4FF6FF7707EAD6
:1025B000041640F6FF473A404FF6FF7707EA033725
:1025C0003A434FF6FF7707EA05273A438F4FB84261
:1025D0000ED08F4FB8420BD0B0F1804F08D08D4F46
:1025E000B84205D08C4FB84202D08C4FB84206D1C9
:1025F0004FF6DF77394046F01007394305E04FF6D4
:102600005F77394044F01007394302830184F0BDFD
:10261000028B4FF6F3731A400283028B0A43028344
:102620007047F0B50C46154600220021068C4FF687
:10263000FE773E400684028B018C4FF60C763240CA
:102640007E1C06EA03162E433243704EB0420ED073
:102650006F4EB0420BD0B0F1804F08D06D4EB042FB
:1026600005D06D4EB04202D06C4EB04206D14FF64E
:10267000FD76314044F00106314305E04FF6F57632
:10268000314044F00106314302830184F0BD70B54E
:1026900005460C465D4885420ED05D4885420BD00C
:1026A000B5F1804F08D05B48854205D05A48854235
:1026B00002D05A48854200D100E000BF208850B9BE
:1026C0002389A28861882846FFF7ABFFE188284666
:1026D000FFF79EFF25E0208804280AD12389A288DD
:1026E00061882846FFF753FFE1882846FFF742FF3D
:1026F00017E0208808280AD12389A2886188284603
:10270000FFF7FBFEE1882846FFF7EEFE09E023898C
:10271000A28861882846FFF7A6FEE1882846FFF7D1
:1027200095FE70BD2DE9F04105460C4600260127B7
:10273000608808B9022600E00026A088012801D19F
:10274000022700E001272088A0B92389A288618898
:102750002846FFF766FFE1882846FFF759FF2389DF
:102760003A4631462846FFF712FFE1882846FFF730
:1027700001FF13E02389A28861882846FFF707FF3D
:10278000E1882846FFF7F6FE23893A463146284677
:10279000FFF747FFE1882846FFF73AFFBDE8F081E1
:1027A0000A884B881A438B881A43CB881A430B89B3
:1027B0001A434B891A438B891A43A0F84420704767
:1027C0004FF6FF71818000210180C180418001723C
:1027D00070470021018041808180C1800181418159
:1027E0008181C18170470021018041800121818068
:1027F0000021C180018170470021018041808180DA
:10280000C18001814181818170470000002C01401D
:10281000003401400004004000080040000C00406B
:1028200021B1028842F00102028004E002884FF6E2
:10283000FE731A400280704731B1B0F8442042F470
:102840000042A0F8442005E0B0F84420C2F30E0294
:10285000A0F8442070471AB183890B43838102E0BA
:1028600083898B43838170478182704741EA0203E9
:10287000A0F8483070471AB183890B43838102E086
:1028800083898B438381704701894FF6F872114029
:10289000018170470A46002101894FF68F73194064
:1028A00011430181704730B504460D462946204644
:1028B000FFF7F0FF208940F00700208130BD2DE9AF
:1028C000F04104460D4616461F46602D06D13B4694
:1028D000012231462046FFF75AFE05E03B46012221
:1028E00031462046FFF79DFE29462046FFF7D2FFDE
:1028F000208940F007002081BDE8F08130B50C460A
:1029000000210189C9B24FF6FF7505EA0325154379
:1029100025432943018130BD2DE9F04105460E468E
:1029200017469846002443463A4631462846FFF764
:10293000E5FF2C894FF6F870044044F007044FF689
:102940008F70044044F070042C81BDE8F081F0B534
:1029500004460D4616461F463B463246294620464B
:10296000FFF7CCFF208940F480402081F0BD018535
:10297000828270470A46002101884FF68F73194002
:10298000114301807047F0B50C4615461E460021E4
:10299000002200230189028B038C4FF6F87739401F
:1029A00021434FF6FC473A4040F201173A434FF6B5
:1029B000DD773B404FF6FF7707EA06172F433B438F
:1029C000018102830384F0BD0A460021018B4FF68A
:1029D0008F7319401143018370470A460021018B10
:1029E00048F6FF7319404FF6FF7303EA02231943B9
:1029F000018370470A460021818B4FF68F7319407F
:102A00001143818370470A460021818B48F6FF738A
:102A100019404FF6FF7303EA02231943818370477D
:102A200021B1028842F08002028004E002884FF661
:102A30007F731A400280704721B1828842F00402FD
:102A4000828004E082884FF6FB731A4082807047D0
:102A500021B1828842F00802828004E082884FF629
:102A6000F7731A408280704721B1828842F00102D8
:102A7000828004E082884FF6FE731A40828070479D
:102A80000A460021018B4FF6F77319401143018369
:102A900070470A460021018B4FF2FF7319404FF631
:102AA000FF7303EA02231943018370470A4600219A
:102AB000818B4FF6F77319401143818370470A46A3
:102AC0000021818B4FF2FF7319404FF6FF7303EA29
:102AD00002231943818370470A460021018B4FF678
:102AE000FB7319401143018370470A460021018B93
:102AF0004FF6FF3319404FF6FF7303EA02231943E1
:102B0000018370470A460021818B4FF6FB73194001
:102B10001143818370470A460021818B4FF6FF33B2
:102B200019404FF6FF7303EA02231943818370476C
:102B30000A460021018B4FF67F7319401143018330
:102B400070470A460021018BC1F30E014FF6FF7357
:102B500003EA02231943018370470A460021818B4F
:102B60004FF67F7319401143818370470A46002155
:102B7000818BC1F30E014FF6FF7303EA0223194361
:102B8000818370470A460021018C4FF6FD7319407E
:102B90001143018470470A460021018C4FF6F773F8
:102BA00019401143018470470A460021018C4FF6F9
:102BB000DF7319404FF6FF7303EA021319430184D0
:102BC00070470A460021018C4FF67F7319404FF67B
:102BD000FF7303EA02131943018470470A46002178
:102BE000018C4FF6FF5319404FF6FF7303EA02239F
:102BF0001943018470470A460021018C4FF2FF738C
:102C000019404FF6FF7303EA02231943018470470A
:102C10000A460021018C4DF6FF7319404FF6FF73F1
:102C200003EA023319430184704730B500230124BD
:102C30008C40A3B2048C9C430484048C02FA01F5FA
:102C4000ADB22C43048430BD30B5002304248C4045
:102C5000A3B2048C9C430484048C02FA01F5ADB247
:102C60002C43048430BD70B5034600200024184670
:102C7000183001258D40ACB21D8CA5431D8409B1CF
:102C8000082909D100EB6100056825F07005056091
:102C90000568154305600EE00D1FC5F34E05284479
:102CA000056825F4E045056005684FF6FF7606EAFD
:102CB00002263543056070BD21B1028842F0020250
:102CC000028004E002884FF6FD731A4002807047CC
:102CD00021B1028842F00402028004E002884FF62B
:102CE000FB731A400280704721B1828842F0800253
:102CF000828004E082884FF67F731A40828070479A
:102D000002884FF6F7731A40028002880A43028055
:102D1000704782884FF68F731A40828082880A43F8
:102D20008280704702894FF6F8731A400281028947
:102D30000A430281704702894FF67F731A4002816D
:102D400002890A43028170478184704781857047F8
:102D5000818670470187704781877047A0F84010CF
:102D6000704702884FF6FF431A40028002880A43E8
:102D7000028070470146888E70470146088F704771
:102D80000146888F70470146B1F840007047014600
:102D9000888C70470146088D704702460020138AD0
:102DA0000B400BB1012000E000207047CA430282B3
:102DB000704730B50246002000230024158A05EA3A
:102DC0000103958905EA010413B10CB1012000E06B
:102DD000002030BDCA4302827047000010B504468F
:102DE000FB48844209D101218803FEF719FF002125
:102DF0004FF48040FEF714FF32E0F648844209D1D8
:102E000001214804FEF719FF00214FF40030FEF7BE
:102E100014FF25E0F048844209D101218804FEF71F
:102E20000CFF00214FF48020FEF707FF18E0EB486D
:102E3000844209D10121C804FEF7FFFE00214FF4AE
:102E40000020FEF7FAFE0BE0E548844208D101219C
:102E50000805FEF7F2FE00214FF48010FEF7EDFEAC
:102E600010BD2DE9F04786B005460E460024A24667
:102E700000BFA1460027B08900B100BF2F462C8AB1
:102E80004CF6FF700440F08804432C82AC894EF667
:102E9000F3100440B0883189084371890843044322
:102EA000AC81AC8A4FF6FF400440B0890443AC8249
:102EB00001A8FEF72EFEC648874202D1DDF810A019
:102EC00001E0DDF80CA0A88900F4004040B10AEB55
:102ED000CA0000EB0A1031684900B0FBF1F807E0C6
:102EE0000AEBCA0000EB0A1031688900B0FBF1F868
:102EF0006420B8FBF0F004012009642101FB108973
:102F0000A88900F4004040B1322000EBC900B0FBBA
:102F1000F1F000F00700044308E0322000EB091054
:102F20006421B0FBF1F000F00F0004432C8106B0E7
:102F3000BDE8F0874FF41651016000218180C18007
:102F400001810C21418100218181704710B5024629
:102F50000020108A4FF2FF0318400B884C8823434F
:102F60008C882343CC8823431843108210BD002152
:102F7000018041808180C180704721B1828942F403
:102F80000052828104E082894DF6FF731A408281EB
:102F90007047F0B50346002400260025002040F6C7
:102FA0006A17B94200D100BF1846C1F3421401F0BC
:102FB0001F06012707FA06F5012C01D10C3004E0A9
:102FC000022C01D1103000E014301AB107682F43F1
:102FD000076002E00768AF430760F0BD1AB1838A5B
:102FE0000B43838202E0838A8B4383827047028A89
:102FF0004FF6F0731A400282028A0A430282704737
:1030000082894FF2FF731A40828182890A4382814A
:10301000704721B1828942F00202828104E08289F4
:103020004FF6FD731A4082817047028A4FF6DF73B4
:103030001A400282028A0A430282704721B1028A40
:1030400042F48042028204E0028A4BF6FF731A4087
:1030500002827047C1F30802828070470146888867
:10306000C0F308007047818941F0010181817047F8
:10307000028BD2B20283028B42EA012202837047A2
:10308000028B02F47F420283028B0A430283704761
:1030900021B1828A42F02002828204E0828A4FF6C5
:1030A000DF731A408282704721B1828A42F0100297
:1030B000828204E0828A4FF6EF731A408282704760
:1030C00021B1828A42F00802828204E0828A4FF6AD
:1030D000F7731A408282704721B1828942F400421C
:1030E000828103E08289C2F30E028281704721B19E
:1030F000828A42F40062828204E0828A4FF2FF7385
:103100001A4082827047828A4FF6FB731A4082828D
:10311000828A0A438282704721B1828A42F0020287
:10312000828204E0828A4FF6FD731A4082827047E1
:1031300002460020B1F5007F00D100BF13880B408C
:103140000BB1012000E00020704701F40072B2F5DD
:10315000007F00D100BFCA430280704770B50246AD
:10316000002400230025002040F66A16B14200D159
:1031700000BFC1F3421501F01F03012606FA03F355
:10318000012D02D19689334006E0022D02D1168A24
:10319000334001E0968A33400C12012606FA04F40B
:1031A0001688344013B10CB1012000E0002070BD3E
:1031B00010B50022002340F66A14A14200D100BFDE
:1031C0000A1201249440A3B2DC43048010BD000025
:1031D000003801400044004000480040004C0040DE
:1031E0000050004030B50146B1F1807F01D301208D
:1031F00030BD21F07F40401E4FF0E022506150175B
:103200000F22002807DA13071D0E3E4B00F00F04B3
:10321000241F1D5503E013071C0E3B4B1C5400BF1D
:1032200000204FF0E0229061072010610020DFE7CE
:1032300010B5364800683649B0FBF1F42046FFF778
:10324000D1FF08B100BFFEE710BD01B531490098BC
:1032500008604FF0E020006940F001004FF0E021ED
:10326000086100BF2B4800680028FBD108BD294831
:10327000006820B127480068401E26490860704752
:1032800031B5224800682449B0FBF1F52846FFF724
:10329000A9FF002408E000BF4FF0E020006900F41F
:1032A00080300028F8D0641C00988442F3D34FF09B
:1032B000E020006920F001004FF0E021086138BDF6
:1032C00031B5124800684FF47A71B0FBF1F5284629
:1032D000FFF788FF002408E000BF4FF0E0200069FE
:1032E00000F480300028F8D0641C00988442F3D3A6
:1032F0004FF0E020006920F001004FF0E02108616C
:1033000038BD000018ED00E000E400E0F800002007
:10331000A08601002001002040420F0008B50121D5
:10332000D020FEF763FC0820ADF8000010208DF8D7
:10333000030003208DF8020069464B48FEF79AF916
:103340000420ADF8000069464748FEF793F92020B5
:10335000ADF8000069464448FEF78CF91020ADF83E
:10336000000069464048FEF785F94020ADF80000AE
:1033700069463D48FEF77EF90120ADF80000694638
:103380003A48FEF777F90420ADF80000694637485F
:10339000FEF770F90220ADF8000069463348FEF7E9
:1033A00069F91020ADF8000069463048FEF762F96F
:1033B0000820ADF8000069462C48FEF75BF9402074
:1033C000ADF8000069462948FEF754F92020ADF811
:1033D000000069462648FEF74DF90220ADF80000CE
:1033E00069462348FEF746F90820ADF80000694613
:1033F0001F48FEF73FF908211B48FEF7EAF90421B0
:103400001948FEF7E6F920211748FEF7E2F91021E6
:103410001548FEF7DEF904211348FEF7DAF9012119
:103420001248FEF7D6F904211048FEF7D2F902211E
:103430000E48FEF7CEF910210C48FEF7CAF9082114
:103440000A48FEF7C6F940210848FEF7C2F92021D4
:103450000748FEF7BCF902210548FEF7B8F9082134
:103460000348FEF7B4F908BD00180140001C0140F4
:10347000001001401FB54FF4A060FEF72DF80121A8
:103480000846FEF7C0FB4FF08040FEF799FD47F27B
:103490002F50ADF8080048F69F40ADF8040000201A
:1034A000ADF80600ADF80A0001A94FF08040FEF724
:1034B0005BFE01218807FFF78DFC01221146900772
:1034C000FFF7C9F901218807FFF7AAF91C208DF839
:1034D000000002208DF8010001208DF802008DF817
:1034E00003006846FDF7FDFF1FBD00001FB54FF448
:1034F000A060FDF7F1FF01210220FEF784FB3548B3
:10350000FEF75EFD4EF65F20ADF8080048F69F40DE
:10351000ADF804000020ADF80600ADF80A0001A9DE
:103520002C48FEF721FE01212A48FFF753FC012217
:1035300011462848FFF78FF901212648FFF770F957
:103540001D208DF8000002208DF8010001208DF86B
:1035500002008DF803006846FDF7C3FF1FBD1FB5CD
:103560004FF4A060FDF7B8FF01210220FEF74BFBEE
:103570001848FEF725FD44F61F60ADF8080041F637
:103580001F40ADF804000020ADF80600ADF80A00B9
:1035900001A91048FEF7E8FD01210E48FFF71AFCCB
:1035A000012211460B48FFF756F901210948FFF7A0
:1035B00037F91D208DF8000001208DF80100002052
:1035C0008DF8020001208DF803006846FDF789FFA1
:1035D0001FBD0000000400407FB505460C464FF4B7
:1035E000A060FDF779FF01210420FEF70CFBADF888
:1035F0000850ADF804400020ADF80600ADF80A0010
:1036000001A91048FEF7B0FD01210E48FFF7E2FBCB
:10361000012211460B48FFF71EF900210948FFF768
:10362000FFF81E208DF8000001208DF80100002019
:103630008DF8020001208DF803006846FDF751FF68
:103640007FBD00000008004008B54FF4A060FDF702
:1036500043FF25208DF8000001208DF801008DF832
:1036600002008DF803006846FDF73BFF08BD00B57A
:1036700085B001210420FEF7B9FA01218803FEF785
:10368000B5FA4FF40070ADF8100018208DF8130053
:1036900003208DF8120004A92D48FDF7EBFF4FF42D
:1036A0008060ADF8100004208DF8130004A92848AC
:1036B000FDF7E0FF4FF4E13000900020ADF804008A
:1036C000ADF80600ADF80800ADF80C000C20ADF820
:1036D0000A0069461F48FFF7C4FBFFF7B5FF012248
:1036E00040F225511B48FFF754FC01211948FFF710
:1036F00044FC05B000BD70B504460D462946204681
:10370000FFF7A8FC00BF80212046FFF711FD00282D
:10371000F9D070BD70B504460D46E1B20D48FFF713
:1037200099FC00BF80210B48FFF702FD0028F9D06B
:10373000204670BD10B5044600BF20210548FFF7A4
:10374000F7FC0028F9D00348FFF788FC10BD000003
:1037500000080140003801402DE9F043BBB00646A7
:10376000884615461F46DDF808910EB105B117B918
:103770003BB0BDE8F083B9F1400F00DDF8E7402130
:103780002BA804F0AEFD40211BA804F0AAFD4A4678
:1037900039462BA804F08CFD4A4639461BA804F094
:1037A00087FD00240CE02BA8005D80F036002BA9DB
:1037B00008551BA8005D80F05C001BA90855641C1F
:1037C000402CF0DB01A800F040F901A800F057F907
:1037D00040222BA901A800F0EAFD4246314601A88B
:1037E00000F0E5FD17A901A800F01FFE01A800F0F8
:1037F0002CF901A800F043F940221BA901A800F010
:10380000D6FD102217A901A800F0D1FD17A901A823
:1038100000F00BFE00240FE017A9095D081100F06D
:1038200084FE05F8140017A9085D00F07EFE012152
:1038300001EB44016854641C102CEDDB00BF97E7DA
:103840002DE9F043BDB00646884615461F46DDF813
:1038500010910EB105B117B93DB0BDE8F083B9F1D3
:10386000400F00DDF8E7402116A804F03AFD4021A2
:1038700006A804F036FD4A46394616A804F018FD9D
:103880004A46394606A804F013FD00240CE016A8A9
:10389000005D80F0360016A9085506A8005D80F08E
:1038A0005C0006A90855641C402CF0DB26A800F03B
:1038B00056FE26A800F06DFE402216A926A802F0AA
:1038C0000CFB4246314626A802F007FB01A926A8B8
:1038D00002F041FB26A800F042FE26A800F059FEA7
:1038E000402206A926A802F0F8FA142201A926A867
:1038F00002F0F3FA01A926A802F02DFB00240FE044
:1039000001A9095D081100F010FE05F8140001A9D5
:10391000085D00F00AFE012101EB44016854641CBB
:10392000142CEDDB00BF97E72DE9F84305460F4661
:103930000026B04674E0FF220421684604F0CAFC69
:10394000002409E03A480068005DA95D884201D181
:103950008DF80040601CC4B2402CF3DB00240AE068
:1039600033480068015D701C285C814201D18DF8EC
:103970000140601CC4B2402CF2DB00240AE02C4859
:103980000068015DB01C285C814201D18DF80240C5
:10399000601CC4B2402CF2DB00240AE0244800681A
:1039A000015DF01C285C814201D18DF80340601C50
:1039B000C4B2402CF2DB9DF80000FC2101EA80003B
:1039C0009DF80110C1F301110843414608F10108B7
:1039D0007854B01C285C3D2800D124E09DF80100FB
:1039E000F02101EA00109DF80210C1F383010843A1
:1039F000414608F101087854F01C285C3D2800D1AC
:103A000011E09DF80200F02101EA80109DF80310FA
:103A100001F03F010843414608F101087854361D82
:103A2000A85D002887D100BF4046BDE8F8830000AC
:103A30002401002010B5024602E0002302F8013BF9
:103A40000B00A1F10101F8D110BD10B504465821B9
:103A5000204604F046FC10BD10B5044604B910BD64
:103A600058212046FFF7E6FF00BFF8E770B504468F
:103A70000D4658222946204604F01AFC70BD00214C
:103A800001604160FE498160FE4AC260CA43026132
:103A9000FC4AD24342617047F0B590B005460C46EF
:103AA0002678677846EA0726A77846EA0746E77841
:103AB00046EA076600962679677946EA0726A779D7
:103AC00046EA0746E77946EA07660196267A677A64
:103AD00046EA0726A77A46EA0746E77A46EA0766ED
:103AE0000296267B677B46EA0726A77B46EA0746BF
:103AF000E77B46EA07660396267C677C46EA07264C
:103B0000A77C46EA0746E77C46EA07660496267DD8
:103B1000677D46EA0726A77D46EA0746E77D46EA2F
:103B200007660596267E677E46EA0726A77E46EA52
:103B30000746E77E46EA07660696267F677F46EADF
:103B40000726A77F46EA0746E77F46EA0766079605
:103B500094F8206094F8217046EA072694F82270C1
:103B600046EA074694F8237046EA0766089694F8F2
:103B7000246094F8257046EA072694F8267046EAF1
:103B8000074694F8277046EA0766099694F8286075
:103B900094F8297046EA072694F82A7046EA074600
:103BA00094F82B7046EA07660A9694F82C6094F80D
:103BB0002D7046EA072694F82E7046EA074694F8D8
:103BC0002F7046EA07660B9694F8306094F83170CF
:103BD00046EA072694F8327046EA074694F83370AE
:103BE00046EA07660C9694F8346094F8357046EA15
:103BF000072694F8367046EA074694F8377046EA86
:103C000007660D9694F8386094F8397046EA0726EE
:103C100094F83A7046EA074694F83B7046EA07661D
:103C20000E9694F83C6094F83D7046EA072694F8A6
:103C30003E7046EA074694F83F7046EA07660F96DC
:103C4000A868E9682A696B6982EA03060E405E404B
:103C5000009F3E448C4F3E443044C60146EA5066C5
:103C6000701881EA020606405640019F3E44874F85
:103C70003E4433441E0346EA1356331880EA0106D5
:103C80001E404E40029F3E44814F3E443244560403
:103C900046EAD236F21883EA000616404640039FF1
:103CA0003E447C4F3E4431448E0546EA9126B1188D
:103CB00082EA03060E405E40049F3E44764F3E4437
:103CC0003044C60146EA5066701881EA0206064092
:103CD0005640059F3E44714F3E4433441E0346EA1E
:103CE0001356331880EA01061E404E40069F3E449C
:103CF0006B4F3E443244560446EAD236F21883EA09
:103D0000000616404640079F3E44664F3E443144FD
:103D10008E0546EA9126B11882EA03060E405E40FF
:103D2000089F3E44604F3E443044C60146EA506618
:103D3000701881EA020606405640099F3E445B4FD8
:103D40003E4433441E0346EA1356331880EA010604
:103D50001E404E400A9F3E44A6F524464F3E324444
:103D6000560446EAD236F21883EA00061640464068
:103D70000B9F3E444E4F3E4431448E0546EA912609
:103D8000B11882EA03060E405E400C9F3E44494F44
:103D90003E443044C60146EA5066701881EA020685
:103DA000064056400D9F3E44434F3E4433441E035D
:103DB00046EA1356331880EA01061E404E400E9F15
:103DC0003E443E4F3E443244560446EAD236F21850
:103DD00083EA0006164046400F9F3E44384F3E445B
:103DE00031448E0546EA9126B11881EA02061E404A
:103DF0005640019F3E44334F3E443044460146EA1C
:103E0000D066701880EA010616404E40069F3E4478
:103E10002D4F3E4433445E0246EAD356331883EABC
:103E200000060E4046400B9F3E44284F3E4432441D
:103E3000960346EA9246F21882EA030606405E407E
:103E4000009F3E44224F3E4431440E0546EA11365F
:103E5000B11881EA02061E405640059F3E441D4FA0
:103E60003E443044460146EAD066701880EA0106B6
:103E700016404E400A9F3E44174F3E4433442DE0C7
:103E80000123456789ABCDEF78A46AD756B7C7E859
:103E9000DB702024EECEBDC1AF0F7CF52AC687476C
:103EA000134630A8019546FDD8988069AFF7448B3A
:103EB000BED75C892211906B937198FD8E4379A6D1
:103EC0002108B44962251EF640B340C0515A5E260F
:103ED000AAC7B6E95D102FD6531444025E0246EA23
:103EE000D356331883EA00060E4046400F9F3E44E7
:103EF000FE4F3E443244960346EA9246F21882EA66
:103F0000030606405E40049F3E44F94F3E44314460
:103F10000E0546EA1136B11881EA02061E405640E7
:103F2000099F3E44F34F3E443044460146EAD06682
:103F3000701880EA010616404E400E9F3E44EE4F38
:103F40003E4433445E0246EAD356331883EA000601
:103F50000E404640039F3E44E84F3E4432449603A1
:103F600046EA9246F21882EA030606405E40089F3F
:103F70003E44E34F3E4431440E0546EA1136B11843
:103F800081EA02061E4056400D9F3E44DD4F3E44EE
:103F90003044460146EAD066701880EA01061640B1
:103FA0004E40029F3E44D84F3E4433445E0246EAB0
:103FB000D356331883EA00060E404640079F3E441E
:103FC000D24F3E443244960346EA9246F21882EAC1
:103FD000030606405E400C9F3E44CD4F3E443144B4
:103FE0000E0546EA1136B11881EA02065E40059FC9
:103FF0003E44C84F3E443044060146EA10767018ED
:1040000080EA01065640089F3E44C34F3E44334475
:10401000DE0246EA5356331883EA00064E400B9FF1
:104020003E44BE4F3E443244160446EA1246F2185D
:1040300082EA030646400E9F3E44B94F3E44314457
:10404000CE0546EA5126B11881EA02065E40019F7C
:104050003E44B44F3E443044060146EA10767018A0
:1040600080EA01065640049F3E44AF4F3E4433442D
:10407000DE0246EA5356331883EA00064E40079F95
:104080003E44AA4F3E443244160446EA1246F21811
:1040900082EA030646400A9F3E44A54F3E4431440F
:1040A000CE0546EA5126B11881EA02065E400D9F10
:1040B0003E44A04F3E443044060146EA1076701854
:1040C00080EA01065640009F3E449B4F3E443344E5
:1040D000DE0246EA5356331883EA00064E40039F39
:1040E0003E44964F3E443244160446EA1246F218C5
:1040F00082EA03064640069F3E44914F3E443144C7
:10410000CE0546EA5126B11881EA02065E40099FB3
:104110003E448C4F3E443044060146EA1076701807
:1041200080EA010656400C9F3E44874F3E4433448C
:10413000DE0246EA5356331883EA00064E400F9FCC
:104140003E44824F3E443244160446EA1246F21878
:1041500082EA03064640029F3E447D4F3E4431447E
:10416000CE0546EA5126B11861EA03065640009F83
:104170003E44784F3E443044860146EA90667018CB
:1041800060EA02064E40079F3E44734F3E4433446C
:104190009E0246EA9356331863EA010646400E9F94
:1041A0003E446E4F3E443244D60346EA5246F2182D
:1041B00062EA00065E40059F3E44694F3E4431443A
:1041C0004E0546EAD126B11861EA030656400C9F17
:1041D0003E44644F3E443044860146EA906670187F
:1041E00060EA02064E40039F3E445F4F3E44334424
:1041F0009E0246EA9356331863EA010646400A9F38
:104200003E445A4F3E443244D60346EA5246F218E0
:1042100062EA00065E40019F3E44554F3E443144F1
:104220004E0546EAD126B11861EA03065640089FBA
:104230003E44504F3E443044860146EA9066701832
:1042400060EA02064E400F9F3E444B4F3E443344CB
:104250009E0246EA9356331863EA01064640069FDB
:104260003E44464F3E443244D60346EA5246F21894
:1042700062EA00065E400D9F3E44414F3E44314499
:104280004E0546EAD126B11861EA03065640049F5E
:104290003E443C4F3E443044860146EA90667018E6
:1042A00060EA02064E400B9F3E44374F3E44334483
:1042B0009E0246EA9356331863EA01064640029F7F
:1042C0003E44324F3E443244D60346EA5246F21848
:1042D00062EA00065E40099F3E442D4F3E44314451
:1042E0004E0546EAD126B118AE6853E081E6A1D862
:1042F000C8FBD3E7E6CDE121D60737C3870DD5F458
:10430000ED145A4505E9E3A9F8A3EFFCD9026F675C
:104310008A4C2A8D4239FAFF81F6718722619D6DA0
:104320000C38E5FD44EABEA4A9CFDE4B604BBBF6DA
:1043300070BCBFBEC67E9B28FA27A1EA8530EFD4A9
:10434000051D880439D0D4D9E599DBE6F87CA21F95
:104350006556ACC4442229F497FF2A43A72394ABA3
:1043600039A093FCC3595B6592CC0C8F7DF4EFFFB1
:10437000D15D84854F7EA86FE0E62CFE144301A337
:10438000A111084E827E53F735F23ABDBBD2D72A2F
:1043900091D386EB0644AE60EE687718EF602E6925
:1043A000B7182F616E69F7186F6110B0F0BD2DE975
:1043B000F0410446884615460DB9BDE8F0812078E5
:1043C00000F03F07C7F140062068284420602068BD
:1043D00020602068A84202D26068401C606087B1FB
:1043E000B5420ED304F11801C8193246414603F014
:1043F0005FFF04F118012046FFF74EFBB044AD1BF0
:10440000002706E041462046FFF746FB08F140083A
:10441000403D402DF6D235B104F11801C8192A46A5
:10442000414603F045FF00BFC7E72DE9FC470446BE
:104430000D462068400F616840EAC1062068C70049
:10444000F8B28DF80000380A8DF80100380C8DF8AC
:104450000200380E8DF80300F0B28DF80400300A27
:104460008DF80500300C8DF80600300E8DF8070031
:10447000207800F03F08B8F1380F02D2C8F13800B8
:1044800001E0C8F1780081464A462E492046FFF7F0
:104490008EFF082269462046FFF789FF207A2870A0
:1044A0002089000A6870A068000CA870A068000E3F
:1044B000E870207B2871A089000A6871E068000C10
:1044C000A871E068000EE871207C2872208A000A3A
:1044D00068722069000CA8722069000EE872207DC5
:1044E0002873A08A000A68736069000CA873606969
:1044F000000EE873BDE8FC8770B596B004460D4623
:1045000016466846FFF7A1FA6846FFF7B8FA2A464A
:1045100021466846FFF74BFF31466846FFF785FFA7
:104520006846FFF799FA16B070BD014601F00F0119
:104530000A2902DA01F1300001E001F1570040B22E
:1045400070470000BA94000810B5024602E000234C
:1045500002F8013B0B00A1F10101F8D110BD10B52B
:1045600004465C21204603F0BCFE10BD10B5044695
:1045700004B910BD5C212046FFF7E6FF00BFF8E755
:1045800070B504460D465C222946204603F090FE95
:1045900070BD002101604160FE498160FE4AC26039
:1045A000CA430261FC4AD2434261FC4A82617047BD
:1045B0002DE9F04390B007460E4696F800C04FEA4A
:1045C0000C6C96F801804CEA084C96F802804CEA94
:1045D000082C96F803804CEA080CCDF800C096F839
:1045E00004C04FEA0C6C96F805804CEA084C96F82B
:1045F00006804CEA082C96F807804CEA080CCDF8A7
:1046000004C096F808C04FEA0C6C96F809804CEA92
:10461000084C96F80A804CEA082C96F80B804CEA75
:10462000080CCDF808C096F80CC04FEA0C6C96F850
:104630000D804CEA084C96F80E804CEA082C96F84F
:104640000F804CEA080CCDF80CC096F810C04FEA69
:104650000C6C96F811804CEA084C96F812804CEAE3
:10466000082C96F813804CEA080CCDF810C096F888
:1046700014C04FEA0C6C96F815804CEA084C96F87A
:1046800016804CEA082C96F817804CEA080CCDF8F6
:1046900014C096F818C04FEA0C6C96F819804CEAD2
:1046A000084C96F81A804CEA082C96F81B804CEAC5
:1046B000080CCDF818C096F81CC04FEA0C6C96F8A0
:1046C0001D804CEA084C96F81E804CEA082C96F89F
:1046D0001F804CEA080CCDF81CC096F820C04FEAA9
:1046E0000C6C96F821804CEA084C96F822804CEA33
:1046F000082C96F823804CEA080CCDF820C096F8D8
:1047000024C04FEA0C6C96F825804CEA084C96F8C9
:1047100026804CEA082C96F827804CEA080CCDF845
:1047200024C096F828C04FEA0C6C96F829804CEA11
:10473000084C96F82A804CEA082C96F82B804CEA14
:10474000080CCDF828C096F82CC04FEA0C6C96F8EF
:104750002D804CEA084C96F82E804CEA082C96F8EE
:104760002F804CEA080CCDF82CC096F830C04FEAE8
:104770000C6C96F831804CEA084C96F832804CEA82
:10478000082C96F833804CEA080CCDF830C096F827
:1047900034C04FEA0C6C96F835804CEA084C96F819
:1047A00036804CEA082C96F837804CEA080CCDF895
:1047B00034C096F838C04FEA0C6C96F839804CEA51
:1047C000084C96F83A804CEA082C96F83B804CEA64
:1047D000080CCDF838C096F83CC04FEA0C6C96F83F
:1047E0003D804CEA084C96F83E804CEA082C96F83E
:1047F0003F804CEA080CCDF83CC0B868F9683A69CB
:104800007B69BC694FEA401C4CEAD06882EA030C21
:104810000CEA010C8CEA030CC444DFF88481C44424
:10482000DDF80080C44464444FEA817C4CEA910185
:104830004FEA441C4CEAD46881EA020C0CEA000CF2
:104840008CEA020CC444DFF85881C444DDF80480CB
:10485000C44463444FEA807C4CEA90004FEA431C16
:104860004CEAD36880EA010C0CEA040C8CEA010CD7
:10487000C444DFF82C81C444DDF80880C444624499
:104880004FEA847C4CEA94044FEA421C4CEAD2681A
:1048900084EA000C0CEA030C8CEA000CC444DFF838
:1048A0000081C444DDF80C80C44461444FEA837C39
:1048B0004CEA93034FEA411C4CEAD16883EA040CAA
:1048C0000CEA020C8CEA040CC444DFF8D480C44423
:1048D000DDF81080C44460444FEA827C4CEA9202C6
:1048E0004FEA401C4CEAD06882EA030C0CEA010C47
:1048F0008CEA030CC444DFF8A880C444DDF81480BB
:10490000C44464444FEA817C4CEA91014FEA441C60
:104910004CEAD46881EA020C0CEA000C8CEA020C26
:10492000C444DFF87C80C444DDF81880C444634488
:104930004FEA807C4CEA90004FEA431C4CEAD36873
:1049400080EA010C0CEA040C8CEA010CC444DFF888
:104950005080C444DDF81C80C44462444FEA847C27
:104960004CEA94044FEA421C4CEAD26884EA000CF8
:104970000CEA030C8CEA000CC444DFF82480C44425
:10498000DDF82080C44461444FEA837C4CEA930301
:1049900008E000000123456789ABCDEFF0E1D2C309
:1049A0009979825A4FEA411C4CEAD16883EA040C97
:1049B0000CEA020C8CEA040CC444DFF8F88FC444FF
:1049C000DDF82480C44460444FEA827C4CEA9202C1
:1049D0004FEA401C4CEAD06882EA030C0CEA010C56
:1049E0008CEA030CC444DFF8CC8FC444DDF8288083
:1049F000C44464444FEA817C4CEA91014FEA441C70
:104A00004CEAD46881EA020C0CEA000C8CEA020C35
:104A1000C444DFF8A08FC444DDF82C80C444634450
:104A20004FEA807C4CEA90004FEA431C4CEAD36882
:104A300080EA010C0CEA040C8CEA010CC444DFF897
:104A4000748FC444DDF83080C44462444FEA847CEF
:104A50004CEA94044FEA421C4CEAD26884EA000C07
:104A60000CEA030C8CEA000CC444DFF8488FC44401
:104A7000DDF83480C44461444FEA837C4CEA9303FC
:104A80004FEA411C4CEAD16883EA040C0CEA020CA0
:104A90008CEA040CC444DFF81C8FC444DDF8388071
:104AA000C44460444FEA827C4CEA92024FEA401CC4
:104AB0004CEAD06882EA030C0CEA010C8CEA030C85
:104AC000C444DFF8F08EC444DDF83C80C444644440
:104AD0004FEA817C4CEA9101DDF834C0DDF820809A
:104AE0008CEA080CDDF808808CEA080CDDF8008000
:104AF0008CEA08054FEA450C4CEAD5784FEA441C8D
:104B00004CEAD46981EA020C0CEA000C8CEA020C33
:104B1000CC44DFF8A09ECC44C4446344CDF800806C
:104B20004FEA807C4CEA9000DDF838C0DDF8248044
:104B30008CEA080CDDF80C808CEA080CDDF80480A7
:104B40008CEA08054FEA450C4CEAD5784FEA431C3D
:104B50004CEAD36980EA010C0CEA040C8CEA010CE3
:104B6000CC44DFF8509ECC44C4446244CDF8048069
:104B70004FEA847C4CEA9404DDF83CC0DDF82880E0
:104B80008CEA080CDDF810808CEA080CDDF808804F
:104B90008CEA08054FEA450C4CEAD5784FEA421CEE
:104BA0004CEAD26984EA000C0CEA030C8CEA000C93
:104BB000CC44DFF8009ECC44C4446144CDF8088066
:104BC0004FEA837C4CEA9303DDF800C0DDF82C80CB
:104BD0008CEA080CDDF814808CEA080CDDF80C80F7
:104BE0008CEA08054FEA450C4CEAD5784FEA411C9F
:104BF0004CEAD16983EA040C0CEA020C8CEA040C3E
:104C0000CC44DFF8B09DCC44C4446044CDF80C8063
:104C10004FEA827C4CEA9202DDF804C0DDF8308075
:104C20008CEA080CDDF818808CEA080CDDF810809E
:104C30008CEA08054FEA450C4CEAD5784FEA401C4F
:104C40004CEAD06981EA020C8CEA030CCC44DFF810
:104C5000689DCC44C4446444CDF810804FEA817C04
:104C60004CEA9101DDF808C0DDF834808CEA080CCC
:104C7000DDF81C808CEA080CDDF814808CEA08054D
:104C80004FEA450C4CEAD5784FEA441C4CEAD4690B
:104C900080EA010C8CEA020CCC44DFF81C9DCC4469
:104CA000C4446344CDF814804FEA807C4CEA900001
:104CB000DDF80CC0DDF838808CEA080CDDF82080C7
:104CC0008CEA080CDDF818808CEA08054FEA450CE0
:104CD0004CEAD5784FEA431C4CEAD36984EA000CCD
:104CE0008CEA010CCC44DFF8D09CCC44C444624430
:104CF000CDF818804FEA847C4CEA9404DDF810C0AB
:104D0000DDF83C808CEA080CDDF824808CEA080C85
:104D1000DDF81C808CEA08054FEA450C4CEAD57892
:104D20004FEA421C4CEAD26983EA040C8CEA000C7C
:104D3000CC44DFF8849CCC44C4446144CDF81C804E
:104D40004FEA837C4CEA9303DDF814C0DDF8008061
:104D50008CEA080CDDF828808CEA080CDDF820804D
:104D60008CEA08054FEA450C4CEAD5784FEA411C1D
:104D70004CEAD16982EA030C8CEA040CCC44DFF8DB
:104D8000389CCC44C4446044CDF820804FEA827CF7
:104D90004CEA9202DDF818C0DDF804808CEA080CB9
:104DA000DDF82C808CEA080CDDF824808CEA0805FC
:104DB0004FEA450C4CEAD5784FEA401C4CEAD069E2
:104DC00081EA020C8CEA030CCC44DFF8EC9BCC4467
:104DD000C4446444CDF824804FEA817C4CEA9101BC
:104DE000DDF81CC0DDF808808CEA080CDDF83080A6
:104DF0008CEA080CDDF828808CEA08054FEA450C9F
:104E00004CEAD5784FEA441C4CEAD46980EA010C9C
:104E10008CEA020CCC44DFF8A09BCC44C44463442D
:104E2000CDF828804FEA807C4CEA9000DDF820C065
:104E3000DDF80C808CEA080CDDF834808CEA080C74
:104E4000DDF82C808CEA08054FEA450C4CEAD57851
:104E50004FEA431C4CEAD36984EA000C8CEA010C4B
:104E6000CC44DFF8549BCC44C4446244CDF82C803D
:104E70004FEA847C4CEA9404DDF824C0DDF810800D
:104E80008CEA080CDDF838808CEA080CDDF83080FC
:104E90008CEA08054FEA450C4CEAD5784FEA421CEB
:104EA0004CEAD26983EA040C8CEA000CCC44DFF8AB
:104EB000089BCC44C4446144CDF830804FEA837CE5
:104EC0004CEA9303DDF828C0DDF814808CEA080C66
:104ED000DDF83C808CEA080CDDF834808CEA0805AB
:104EE0004FEA450C4CEAD5784FEA411C4CEAD169AF
:104EF00082EA030C8CEA040CCC44DFF8BC9ACC4464
:104F0000C4446044CDF834804FEA827C4CEA92027B
:104F1000DDF82CC0DDF818808CEA080CDDF8008084
:104F20008CEA080CDDF838808CEA08054FEA450C5D
:104F30004CEAD5784FEA401C4CEAD06981EA020C71
:104F40008CEA030CCC44DFF8709ACC44C44464442B
:104F5000CDF838804FEA817C4CEA9101DDF830C011
:104F6000DDF81C808CEA080CDDF804808CEA080C63
:104F7000DDF83C808CEA08054FEA450C4CEAD57810
:104F80004FEA441C4CEAD46980EA010C8CEA020C1A
:104F9000CC44DFF8249ACC44C4446344CDF83C802C
:104FA0004FEA807C4CEA9000DDF834C0DDF82080C8
:104FB0008CEA080CDDF808808CEA080CDDF800802B
:104FC0008CEA08054FEA450C4CEAD5784FEA431CB9
:104FD0004CEAD36984EA000C8CEA010CCC44DFF87B
:104FE000D899CC44C4446244CDF800804FEA847C14
:104FF0004CEA9404DDF838C0DDF824808CEA080C13
:10500000DDF80C808CEA080CDDF804808CEA0805D9
:105010004FEA450C4CEAD5784FEA421C4CEAD2697B
:1050200083EA040C8CEA000CCC44DFF88C99CC4465
:10503000C4446144CDF804804FEA837C4CEA930376
:10504000DDF83CC0DDF828808CEA080CDDF8108023
:105050008CEA080CDDF808808CEA08054FEA450C5C
:105060004CEAD5784FEA411C4CEAD16982EA030C3C
:105070008CEA040CCC44DFF84099CC44C44460442E
:10508000CDF808804FEA827C4CEA9202DDF800C03D
:10509000DDF82C808CEA080CDDF814808CEA080C12
:1050A000DDF80C808CEA08054FEA450C4CEAD5780F
:1050B0004FEA401C4CEAD06981EA020C8CEA030CEE
:1050C000CC44DFF8F498CC44C4446444CDF80C805C
:1050D0004FEA817C4CEA9101DDF804C0DDF83080B4
:1050E0008CEA080CDDF818808CEA080CDDF81080DA
:1050F0008CEA08054FEA450C4CEAD5784FEA441C87
:105100004CEAD46980EA010C8CEA020CCC44DFF84A
:10511000A898CC44C4446344CDF810804FEA807C06
:105120004CEA9000DDF808C0DDF834808CEA080C09
:10513000DDF81C808CEA080CDDF814808CEA080588
:105140004FEA450C4CEAD5784FEA431C4CEAD36948
:1051500084EA000C8CEA010CCC44DFF85C98CC4467
:10516000C4446244CDF814804FEA847C4CEA940431
:10517000DDF80CC0DDF838808CEA080CDDF8208002
:105180008CEA080CDDF818808CEA08054FEA450C1B
:105190004CEAD5784FEA421C4CEAD26983EA040C07
:1051A0008CEA000CCC44DFF81098CC44C444614431
:1051B000CDF818804FEA837C4CEA9303DDF810C0E9
:1051C000DDF83C808CEA080CDDF824808CEA080CC1
:1051D000DDF81C808CEA08054FEA450C4CEAD578CE
:1051E0004FEA411C4CEAD16982EA030C8CEA040CB8
:1051F000CC44DFF8C497CC44C4446044CDF81C8050
:105200004FEA827C4CEA92024FEA401C4CEAD06999
:1052100001EA020C41EA020808EA03084CEA080C19
:10522000CC44DFF89887E044DDF814C0DDF8009046
:105230008CEA090CDDF828908CEA090CDDF8209046
:105240008CEA09054FEA450C4CEAD57CCDF820C024
:10525000C44464444FEA817C4CEA91014FEA441C07
:105260004CEAD46900EA010C40EA010808EA0208A5
:105270004CEA080CCC44DFF84487E044DDF818C061
:10528000DDF804908CEA090CDDF82C908CEA090C0E
:10529000DDF824908CEA09054FEA450C4CEAD57CF0
:1052A000CDF824C0C44463444FEA807C4CEA9000AB
:1052B0004FEA431C4CEAD36904EA000C44EA0008B4
:1052C00008EA01084CEA080CCC44DFF8F086E04418
:1052D000DDF81CC0DDF808908CEA090CDDF8309090
:1052E0008CEA090CDDF828908CEA09054FEA450C98
:1052F0004CEAD57CCDF828C0C44462444FEA847C93
:105300004CEA94044FEA421C4CEAD26903EA040CCA
:1053100043EA040808EA00084CEA080CCC44DFF829
:105320009C86E044DDF820C0DDF80C908CEA090C86
:10533000DDF834908CEA090CDDF82C908CEA090534
:105340004FEA450C4CEAD57CCDF82CC0C4446144EE
:105350004FEA837C4CEA93034FEA411C4CEAD16943
:1053600002EA030C42EA030808EA04084CEA080CC3
:10537000CC44DFF84886E044DDF824C0DDF8109026
:105380008CEA090CDDF838908CEA090CDDF83090D5
:105390008CEA09054FEA450C4CEAD57CCDF830C0C3
:1053A000C44460444FEA827C4CEA92024FEA401CBB
:1053B0004CEAD06901EA020C41EA020808EA030853
:1053C0004CEA080CCC44DFF8F485E044DDF828C052
:1053D000DDF814908CEA090CDDF83C908CEA090C9D
:1053E000DDF834908CEA09054FEA450C4CEAD57C8F
:1053F000CDF834C0C44464444FEA817C4CEA910146
:105400004FEA441C4CEAD46900EA010C40EA010866
:1054100008EA02084CEA080CCC44DFF8A085E04416
:10542000DDF82CC0DDF818908CEA090CDDF800904E
:105430008CEA090CDDF838908CEA09054FEA450C36
:105440004CEAD57CCDF838C0C44463444FEA807C34
:105450004CEA90004FEA431C4CEAD36904EA000C82
:1054600044EA000808EA01084CEA080CCC44DFF8DA
:105470004C85E044DDF830C0DDF81C908CEA090C66
:10548000DDF804908CEA090CDDF83C908CEA090503
:105490004FEA450C4CEAD57CCDF83CC0C44462448C
:1054A0004FEA847C4CEA94044FEA421C4CEAD269ED
:1054B00003EA040C43EA040808EA00084CEA080C72
:1054C000CC44DFF8F884E044DDF834C0DDF8209007
:1054D0008CEA090CDDF808908CEA090CDDF80090E4
:1054E0008CEA09054FEA450C4CEAD57CCDF800C0A2
:1054F000C44461444FEA837C4CEA93034FEA411C65
:105500004CEAD16902EA030C42EA030808EA0408FB
:105510004CEA080CCC44DFF8A484E044DDF838C041
:10552000DDF824908CEA090CDDF80C908CEA090C6B
:10553000DDF804908CEA09054FEA450C4CEAD57C6D
:10554000CDF804C0C44460444FEA827C4CEA920225
:105550004FEA401C4CEAD06901EA020C41EA020819
:1055600008EA03084CEA080CCC44DFF85084E04415
:10557000DDF83CC0DDF828908CEA090CDDF81090CD
:105580008CEA090CDDF808908CEA09054FEA450C15
:105590004CEAD57CCDF808C0C44464444FEA817C11
:1055A0004CEA91014FEA441C4CEAD46900EA010C30
:1055B00040EA010808EA02084CEA080CCC44DFF88B
:1055C000FC83E044DDF800C0DDF82C908CEA090C87
:1055D000DDF814908CEA090CDDF80C908CEA0905D2
:1055E0004FEA450C4CEAD57CCDF80CC0C44463446A
:1055F0004FEA807C4CEA90004FEA431C4CEAD369A6
:1056000004EA000C44EA000808EA01084CEA080C25
:10561000CC44DFF8A883E044DDF804C0DDF8309026
:105620008CEA090CDDF818908CEA090CDDF8109072
:105630008CEA09054FEA450C4CEAD57CCDF810C040
:10564000C44462444FEA847C4CEA94044FEA421C0E
:105650004CEAD26903EA040C43EA040808EA0008A9
:105660004CEA080CCC44DFF85483E044DDF808C071
:10567000DDF834908CEA090CDDF81C908CEA090CFA
:10568000DDF814908CEA09054FEA450C4CEAD57C0C
:10569000CDF814C0C44461444FEA837C4CEA9303C0
:1056A0004FEA411C4CEAD16902EA030C42EA0308C2
:1056B00008EA04084CEA080CCC44DFF80083E04414
:1056C000DDF80CC0DDF838908CEA090CDDF820908C
:1056D0008CEA090CDDF818908CEA09054FEA450CB4
:1056E0004CEAD57CCDF818C0C44460444FEA827CB3
:1056F0004CEA92024FEA401C4CEAD06901EA020CE3
:1057000041EA020808EA03084CEA080CCC44DFF836
:10571000AC82E044DDF810C0DDF83C908CEA090C66
:10572000DDF824908CEA090CDDF81C908CEA090560
:105730004FEA450C4CEAD57CCDF81CC0C444644407
:105740004FEA817C4CEA91014FEA441C4CEAD4694F
:1057500000EA010C40EA010808EA02084CEA080CD9
:10576000CC44DFF85882E044DDF814C0DDF8009046
:105770008CEA090CDDF828908CEA090CDDF8209001
:105780008CEA09054FEA450C4CEAD57CCDF820C0DF
:10579000C44463444FEA807C4CEA90004FEA431CC7
:1057A0004CEAD36904EA000C44EA000808EA01085C
:1057B0004CEA080CCC44DFF80482E044DDF818C061
:1057C000DDF804908CEA090CDDF82C908CEA090CC9
:1057D000DDF824908CEA09054FEA450C4CEAD57CAB
:1057E000CDF824C0C44462444FEA847C4CEA94045B
:1057F0004FEA421C4CEAD26903EA040C43EA04086B
:1058000008EA00084CEA080CCC44DFF8B081E04418
:10581000DDF81CC0DDF808908CEA090CDDF830904A
:105820008CEA090CDDF828908CEA09054FEA450C52
:105830004CEAD57CCDF828C0C44461444FEA837C4F
:105840004CEA93034FEA411C4CEAD16902EA030C8B
:1058500042EA030808EA04084CEA080CCC44DFF8E2
:105860005C81E044DDF820C0DDF80C908CEA090C86
:10587000DDF834908CEA090CDDF82C908CEA0905EF
:105880004FEA450C4CEAD57CCDF82CC0C4446044AA
:105890004FEA827C4CEA9202DDF824C0DDF81080E9
:1058A0008CEA080CDDF838808CEA080CDDF83080D2
:1058B0008CEA08054FEA450C4CEAD5784FEA401CC3
:1058C0004CEAD06981EA020C8CEA030CCC44DFF884
:1058D000F090CC44C4446444CDF830804FEA817CDD
:1058E0004CEA9101DDF828C0DDF814808CEA080C40
:1058F000DDF83C808CEA080CDDF834808CEA080581
:105900004FEA450C4CEAD5784FEA441C4CEAD4697E
:1059100080EA010C8CEA020CCC44DFF8A490CC4461
:10592000C4446344CDF834804FEA807C4CEA900054
:10593000DDF82CC0DDF818808CEA080CDDF800805A
:105940008CEA080CDDF838808CEA08054FEA450C33
:105950004CEAD5784FEA431C4CEAD36984EA000C40
:105960008CEA010CCC44DFF85890CC44C444624427
:10597000CDF838804FEA847C4CEA9404DDF830C0DE
:10598000DDF81C808CEA080CDDF804808CEA080C39
:10599000DDF83C808CEA08054FEA450C4CEAD578E6
:1059A0004FEA421C4CEAD26983EA040C8CEA000CF0
:1059B000CC4407E09979825AA1EBD96EDCBC1B8FED
:1059C000D6C162CADFF8A496CC44C4446144CDF881
:1059D0003C804FEA837C4CEA9303DDF834C0DDF869
:1059E00020808CEA080CDDF808808CEA080CDDF8D1
:1059F00000808CEA08054FEA450C4CEAD5784FEA5E
:105A0000411C4CEAD16982EA030C8CEA040CCC44B8
:105A1000DFF85896CC44C4446044CDF800804FEA87
:105A2000827C4CEA9202DDF838C0DDF824808CEAF2
:105A3000080CDDF80C808CEA080CDDF804808CEA98
:105A400008054FEA450C4CEAD5784FEA401C4CEA71
:105A5000D06981EA020C8CEA030CCC44DFF80C9686
:105A6000CC44C4446444CDF804804FEA817C4CEAC1
:105A70009101DDF83CC0DDF828808CEA080CDDF8E7
:105A800010808CEA080CDDF808808CEA08054FEAE3
:105A9000450C4CEAD5784FEA441C4CEAD46980EABC
:105AA000010C8CEA020CCC44DFF8C095CC44C44411
:105AB0006344CDF808804FEA807C4CEA9000DDF822
:105AC00000C0DDF82C808CEA080CDDF814808CEA2C
:105AD000080CDDF80C808CEA08054FEA450C4CEA0E
